{
  "_format": "hh-sol-artifact-1",
  "contractName": "Goldstem",
  "sourceName": "contracts/Goldstem.sol",
  "abi": [
    {
      "inputs": [
        {
          "internalType": "address",
          "name": "_fruitWallet",
          "type": "address"
        },
        {
          "internalType": "address",
          "name": "_branchesWallet",
          "type": "address"
        }
      ],
      "stateMutability": "nonpayable",
      "type": "constructor"
    },
    {
      "anonymous": false,
      "inputs": [
        {
          "indexed": true,
          "internalType": "address",
          "name": "from",
          "type": "address"
        },
        {
          "indexed": false,
          "internalType": "uint256",
          "name": "amount",
          "type": "uint256"
        },
        {
          "indexed": false,
          "internalType": "uint256",
          "name": "fruitAmount",
          "type": "uint256"
        },
        {
          "indexed": false,
          "internalType": "uint256",
          "name": "branchesAmount",
          "type": "uint256"
        }
      ],
      "name": "FundsSplit",
      "type": "event"
    },
    {
      "inputs": [],
      "name": "branchesShare",
      "outputs": [
        {
          "internalType": "uint256",
          "name": "",
          "type": "uint256"
        }
      ],
      "stateMutability": "view",
      "type": "function"
    },
    {
      "inputs": [],
      "name": "branchesWallet",
      "outputs": [
        {
          "internalType": "address",
          "name": "",
          "type": "address"
        }
      ],
      "stateMutability": "view",
      "type": "function"
    },
    {
      "inputs": [],
      "name": "fruitShare",
      "outputs": [
        {
          "internalType": "uint256",
          "name": "",
          "type": "uint256"
        }
      ],
      "stateMutability": "view",
      "type": "function"
    },
    {
      "inputs": [],
      "name": "fruitWallet",
      "outputs": [
        {
          "internalType": "address",
          "name": "",
          "type": "address"
        }
      ],
      "stateMutability": "view",
      "type": "function"
    },
    {
      "inputs": [],
      "name": "owner",
      "outputs": [
        {
          "internalType": "address",
          "name": "",
          "type": "address"
        }
      ],
      "stateMutability": "view",
      "type": "function"
    },
    {
      "inputs": [
        {
          "internalType": "address",
          "name": "_fruitWallet",
          "type": "address"
        },
        {
          "internalType": "address",
          "name": "_branchesWallet",
          "type": "address"
        }
      ],
      "name": "setWallets",
      "outputs": [],
      "stateMutability": "nonpayable",
      "type": "function"
    },
    {
      "inputs": [],
      "name": "withdraw",
      "outputs": [],
      "stateMutability": "nonpayable",
      "type": "function"
    },
    {
      "stateMutability": "payable",
      "type": "receive"
    }
  ],
  "bytecode": "0x60806040526014600355605060045534801561001a57600080fd5b50604051610e8f380380610e8f833981810160405281019061003c9190610168565b336000806101000a81548173ffffffffffffffffffffffffffffffffffffffff021916908373ffffffffffffffffffffffffffffffffffffffff16021790555081600160006101000a81548173ffffffffffffffffffffffffffffffffffffffff021916908373ffffffffffffffffffffffffffffffffffffffff16021790555080600260006101000a81548173ffffffffffffffffffffffffffffffffffffffff021916908373ffffffffffffffffffffffffffffffffffffffff16021790555050506101a8565b600080fd5b600073ffffffffffffffffffffffffffffffffffffffff82169050919050565b60006101358261010a565b9050919050565b6101458161012a565b811461015057600080fd5b50565b6000815190506101628161013c565b92915050565b6000806040838503121561017f5761017e610105565b5b600061018d85828601610153565b925050602061019e85828601610153565b9150509250929050565b610cd8806101b76000396000f3fe6080604052600436106100745760003560e01c80638da5cb5b1161004e5780638da5cb5b146103a2578063940a49bd146103cd578063b4d7fb12146103f8578063d3f6a1571461042357610330565b806312d43776146103355780633ccfd60b146103605780638a780b921461037757610330565b3661033057600560009054906101000a900460ff16156100c9576040517f08c379a00000000000000000000000000000000000000000000000000000000081526004016100c090610797565b60405180910390fd5b6001600560006101000a81548160ff0219169083151502179055506000340315610314576000349050600060646003548361010491906107f0565b61010e9190610861565b90506000818361011e9190610892565b90506000600160009054906101000a900473ffffffffffffffffffffffffffffffffffffffff1673ffffffffffffffffffffffffffffffffffffffff1683604051610168906108f7565b60006040518083038185875af1925050503d80600081146101a5576040519150601f19603f3d011682016040523d82523d6000602084013e6101aa565b606091505b50509050806101ee576040517f08c379a00000000000000000000000000000000000000000000000000000000081526004016101e59061097e565b60405180910390fd5b6000600260009054906101000a900473ffffffffffffffffffffffffffffffffffffffff1673ffffffffffffffffffffffffffffffffffffffff1683604051610236906108f7565b60006040518083038185875af1925050503d8060008114610273576040519150601f19603f3d011682016040523d82523d6000602084013e610278565b606091505b50509050806102bc576040517f08c379a00000000000000000000000000000000000000000000000000000000081526004016102b390610a10565b60405180910390fd5b3373ffffffffffffffffffffffffffffffffffffffff167f7f23c79eca79eabf5f003b161350b7b38c9d413b8c990d5ade37a24f49b2dd8786868660405161030693929190610a3f565b60405180910390a250505050505b6000600560006101000a81548160ff0219169083151502179055005b600080fd5b34801561034157600080fd5b5061034a61044c565b6040516103579190610a76565b60405180910390f35b34801561036c57600080fd5b50610375610452565b005b34801561038357600080fd5b5061038c6105b0565b6040516103999190610ad2565b60405180910390f35b3480156103ae57600080fd5b506103b76105d6565b6040516103c49190610ad2565b60405180910390f35b3480156103d957600080fd5b506103e26105fa565b6040516103ef9190610ad2565b60405180910390f35b34801561040457600080fd5b5061040d610620565b60405161041a9190610a76565b60405180910390f35b34801561042f57600080fd5b5061044a60048036038101906104459190610b1e565b610626565b005b60045481565b60008054906101000a900473ffffffffffffffffffffffffffffffffffffffff1673ffffffffffffffffffffffffffffffffffffffff163373ffffffffffffffffffffffffffffffffffffffff16146104e0576040517f08c379a00000000000000000000000000000000000000000000000000000000081526004016104d790610baa565b60405180910390fd5b60008060009054906101000a900473ffffffffffffffffffffffffffffffffffffffff1673ffffffffffffffffffffffffffffffffffffffff1647604051610527906108f7565b60006040518083038185875af1925050503d8060008114610564576040519150601f19603f3d011682016040523d82523d6000602084013e610569565b606091505b50509050806105ad576040517f08c379a00000000000000000000000000000000000000000000000000000000081526004016105a490610c16565b60405180910390fd5b50565b600260009054906101000a900473ffffffffffffffffffffffffffffffffffffffff1681565b60008054906101000a900473ffffffffffffffffffffffffffffffffffffffff1681565b600160009054906101000a900473ffffffffffffffffffffffffffffffffffffffff1681565b60035481565b60008054906101000a900473ffffffffffffffffffffffffffffffffffffffff1673ffffffffffffffffffffffffffffffffffffffff163373ffffffffffffffffffffffffffffffffffffffff16146106b4576040517f08c379a00000000000000000000000000000000000000000000000000000000081526004016106ab90610c82565b60405180910390fd5b81600160006101000a81548173ffffffffffffffffffffffffffffffffffffffff021916908373ffffffffffffffffffffffffffffffffffffffff16021790555080600260006101000a81548173ffffffffffffffffffffffffffffffffffffffff021916908373ffffffffffffffffffffffffffffffffffffffff1602179055505050565b600082825260208201905092915050565b7f4e6f2072652d656e7472616e6379000000000000000000000000000000000000600082015250565b6000610781600e8361073a565b915061078c8261074b565b602082019050919050565b600060208201905081810360008301526107b081610774565b9050919050565b6000819050919050565b7f4e487b7100000000000000000000000000000000000000000000000000000000600052601160045260246000fd5b60006107fb826107b7565b9150610806836107b7565b9250828202610814816107b7565b9150828204841483151761082b5761082a6107c1565b5b5092915050565b7f4e487b7100000000000000000000000000000000000000000000000000000000600052601260045260246000fd5b600061086c826107b7565b9150610877836107b7565b92508261088757610886610832565b5b828204905092915050565b600061089d826107b7565b91506108a8836107b7565b92508282039050818111156108c0576108bf6107c1565b5b92915050565b600081905092915050565b50565b60006108e16000836108c6565b91506108ec826108d1565b600082019050919050565b6000610902826108d4565b9150819050919050565b7f4661696c656420746f2073656e642066756e647320746f20667275697420776160008201527f6c6c657400000000000000000000000000000000000000000000000000000000602082015250565b600061096860248361073a565b91506109738261090c565b604082019050919050565b600060208201905081810360008301526109978161095b565b9050919050565b7f4661696c656420746f2073656e642066756e647320746f206272616e6368657360008201527f2077616c6c657400000000000000000000000000000000000000000000000000602082015250565b60006109fa60278361073a565b9150610a058261099e565b604082019050919050565b60006020820190508181036000830152610a29816109ed565b9050919050565b610a39816107b7565b82525050565b6000606082019050610a546000830186610a30565b610a616020830185610a30565b610a6e6040830184610a30565b949350505050565b6000602082019050610a8b6000830184610a30565b92915050565b600073ffffffffffffffffffffffffffffffffffffffff82169050919050565b6000610abc82610a91565b9050919050565b610acc81610ab1565b82525050565b6000602082019050610ae76000830184610ac3565b92915050565b600080fd5b610afb81610ab1565b8114610b0657600080fd5b50565b600081359050610b1881610af2565b92915050565b60008060408385031215610b3557610b34610aed565b5b6000610b4385828601610b09565b9250506020610b5485828601610b09565b9150509250929050565b7f4f6e6c79206f776e65722063616e207769746864726177000000000000000000600082015250565b6000610b9460178361073a565b9150610b9f82610b5e565b602082019050919050565b60006020820190508181036000830152610bc381610b87565b9050919050565b7f4661696c656420746f2077697468647261772066756e64730000000000000000600082015250565b6000610c0060188361073a565b9150610c0b82610bca565b602082019050919050565b60006020820190508181036000830152610c2f81610bf3565b9050919050565b7f4f6e6c79206f776e65722063616e207365742077616c6c657473000000000000600082015250565b6000610c6c601a8361073a565b9150610c7782610c36565b602082019050919050565b60006020820190508181036000830152610c9b81610c5f565b905091905056fea2646970667358221220fd8ea2b6f25e79491438d3a7f86506abbb1fc7164c3a9a0f9221dc3e815e96ef64736f6c63430008180033",
  "linkReferences": {},
  "deployedLinkReferences": {}
}