{
  "_format": "hh-sol-artifact-1",
  "contractName": "Goldstem",
  "sourceName": "contracts/Goldstem.sol",
  "abi": [
    {
      "inputs": [
        {
          "internalType": "address",
          "name": "_fruitWallet",
          "type": "address"
        },
        {
          "internalType": "address",
          "name": "_branchesWallet",
          "type": "address"
        }
      ],
      "stateMutability": "nonpayable",
      "type": "constructor"
    },
    {
      "anonymous": false,
      "inputs": [
        {
          "indexed": true,
          "internalType": "address",
          "name": "from",
          "type": "address"
        },
        {
          "indexed": false,
          "internalType": "uint256",
          "name": "amount",
          "type": "uint256"
        },
        {
          "indexed": false,
          "internalType": "uint256",
          "name": "fruitAmount",
          "type": "uint256"
        },
        {
          "indexed": false,
          "internalType": "uint256",
          "name": "branchesAmount",
          "type": "uint256"
        }
      ],
      "name": "FundsSplit",
      "type": "event"
    },
    {
      "inputs": [],
      "name": "branchesShare",
      "outputs": [
        {
          "internalType": "uint256",
          "name": "",
          "type": "uint256"
        }
      ],
      "stateMutability": "view",
      "type": "function"
    },
    {
      "inputs": [],
      "name": "branchesWallet",
      "outputs": [
        {
          "internalType": "address",
          "name": "",
          "type": "address"
        }
      ],
      "stateMutability": "view",
      "type": "function"
    },
    {
      "inputs": [],
      "name": "fruitShare",
      "outputs": [
        {
          "internalType": "uint256",
          "name": "",
          "type": "uint256"
        }
      ],
      "stateMutability": "view",
      "type": "function"
    },
    {
      "inputs": [],
      "name": "fruitWallet",
      "outputs": [
        {
          "internalType": "address",
          "name": "",
          "type": "address"
        }
      ],
      "stateMutability": "view",
      "type": "function"
    },
    {
      "inputs": [],
      "name": "owner",
      "outputs": [
        {
          "internalType": "address",
          "name": "",
          "type": "address"
        }
      ],
      "stateMutability": "view",
      "type": "function"
    },
    {
      "inputs": [
        {
          "internalType": "address",
          "name": "_fruitWallet",
          "type": "address"
        },
        {
          "internalType": "address",
          "name": "_branchesWallet",
          "type": "address"
        }
      ],
      "name": "setWallets",
      "outputs": [],
      "stateMutability": "nonpayable",
      "type": "function"
    },
    {
      "inputs": [],
      "name": "withdraw",
      "outputs": [],
      "stateMutability": "nonpayable",
      "type": "function"
    },
    {
      "stateMutability": "payable",
      "type": "receive"
    }
  ],
  "bytecode": "0x60806040526014600355605060045534801561001a57600080fd5b50604051610d9e380380610d9e833981810160405281019061003c9190610168565b336000806101000a81548173ffffffffffffffffffffffffffffffffffffffff021916908373ffffffffffffffffffffffffffffffffffffffff16021790555081600160006101000a81548173ffffffffffffffffffffffffffffffffffffffff021916908373ffffffffffffffffffffffffffffffffffffffff16021790555080600260006101000a81548173ffffffffffffffffffffffffffffffffffffffff021916908373ffffffffffffffffffffffffffffffffffffffff16021790555050506101a8565b600080fd5b600073ffffffffffffffffffffffffffffffffffffffff82169050919050565b60006101358261010a565b9050919050565b6101458161012a565b811461015057600080fd5b50565b6000815190506101628161013c565b92915050565b6000806040838503121561017f5761017e610105565b5b600061018d85828601610153565b925050602061019e85828601610153565b9150509250929050565b610be7806101b76000396000f3fe6080604052600436106100745760003560e01c80638da5cb5b1161004e5780638da5cb5b1461031d578063940a49bd14610348578063b4d7fb1214610373578063d3f6a1571461039e576102ab565b806312d43776146102b05780633ccfd60b146102db5780638a780b92146102f2576102ab565b366102ab5760003403156102a9576000349050600060646003548361009991906106ee565b6100a3919061075f565b9050600081836100b39190610790565b90506000600160009054906101000a900473ffffffffffffffffffffffffffffffffffffffff1673ffffffffffffffffffffffffffffffffffffffff16836040516100fd906107f5565b60006040518083038185875af1925050503d806000811461013a576040519150601f19603f3d011682016040523d82523d6000602084013e61013f565b606091505b5050905080610183576040517f08c379a000000000000000000000000000000000000000000000000000000000815260040161017a9061088d565b60405180910390fd5b6000600260009054906101000a900473ffffffffffffffffffffffffffffffffffffffff1673ffffffffffffffffffffffffffffffffffffffff16836040516101cb906107f5565b60006040518083038185875af1925050503d8060008114610208576040519150601f19603f3d011682016040523d82523d6000602084013e61020d565b606091505b5050905080610251576040517f08c379a00000000000000000000000000000000000000000000000000000000081526004016102489061091f565b60405180910390fd5b3373ffffffffffffffffffffffffffffffffffffffff167f7f23c79eca79eabf5f003b161350b7b38c9d413b8c990d5ade37a24f49b2dd8786868660405161029b9392919061094e565b60405180910390a250505050505b005b600080fd5b3480156102bc57600080fd5b506102c56103c7565b6040516102d29190610985565b60405180910390f35b3480156102e757600080fd5b506102f06103cd565b005b3480156102fe57600080fd5b5061030761052b565b60405161031491906109e1565b60405180910390f35b34801561032957600080fd5b50610332610551565b60405161033f91906109e1565b60405180910390f35b34801561035457600080fd5b5061035d610575565b60405161036a91906109e1565b60405180910390f35b34801561037f57600080fd5b5061038861059b565b6040516103959190610985565b60405180910390f35b3480156103aa57600080fd5b506103c560048036038101906103c09190610a2d565b6105a1565b005b60045481565b60008054906101000a900473ffffffffffffffffffffffffffffffffffffffff1673ffffffffffffffffffffffffffffffffffffffff163373ffffffffffffffffffffffffffffffffffffffff161461045b576040517f08c379a000000000000000000000000000000000000000000000000000000000815260040161045290610ab9565b60405180910390fd5b60008060009054906101000a900473ffffffffffffffffffffffffffffffffffffffff1673ffffffffffffffffffffffffffffffffffffffff16476040516104a2906107f5565b60006040518083038185875af1925050503d80600081146104df576040519150601f19603f3d011682016040523d82523d6000602084013e6104e4565b606091505b5050905080610528576040517f08c379a000000000000000000000000000000000000000000000000000000000815260040161051f90610b25565b60405180910390fd5b50565b600260009054906101000a900473ffffffffffffffffffffffffffffffffffffffff1681565b60008054906101000a900473ffffffffffffffffffffffffffffffffffffffff1681565b600160009054906101000a900473ffffffffffffffffffffffffffffffffffffffff1681565b60035481565b60008054906101000a900473ffffffffffffffffffffffffffffffffffffffff1673ffffffffffffffffffffffffffffffffffffffff163373ffffffffffffffffffffffffffffffffffffffff161461062f576040517f08c379a000000000000000000000000000000000000000000000000000000000815260040161062690610b91565b60405180910390fd5b81600160006101000a81548173ffffffffffffffffffffffffffffffffffffffff021916908373ffffffffffffffffffffffffffffffffffffffff16021790555080600260006101000a81548173ffffffffffffffffffffffffffffffffffffffff021916908373ffffffffffffffffffffffffffffffffffffffff1602179055505050565b6000819050919050565b7f4e487b7100000000000000000000000000000000000000000000000000000000600052601160045260246000fd5b60006106f9826106b5565b9150610704836106b5565b9250828202610712816106b5565b91508282048414831517610729576107286106bf565b5b5092915050565b7f4e487b7100000000000000000000000000000000000000000000000000000000600052601260045260246000fd5b600061076a826106b5565b9150610775836106b5565b92508261078557610784610730565b5b828204905092915050565b600061079b826106b5565b91506107a6836106b5565b92508282039050818111156107be576107bd6106bf565b5b92915050565b600081905092915050565b50565b60006107df6000836107c4565b91506107ea826107cf565b600082019050919050565b6000610800826107d2565b9150819050919050565b600082825260208201905092915050565b7f4661696c656420746f2073656e642066756e647320746f20667275697420776160008201527f6c6c657400000000000000000000000000000000000000000000000000000000602082015250565b600061087760248361080a565b91506108828261081b565b604082019050919050565b600060208201905081810360008301526108a68161086a565b9050919050565b7f4661696c656420746f2073656e642066756e647320746f206272616e6368657360008201527f2077616c6c657400000000000000000000000000000000000000000000000000602082015250565b600061090960278361080a565b9150610914826108ad565b604082019050919050565b60006020820190508181036000830152610938816108fc565b9050919050565b610948816106b5565b82525050565b6000606082019050610963600083018661093f565b610970602083018561093f565b61097d604083018461093f565b949350505050565b600060208201905061099a600083018461093f565b92915050565b600073ffffffffffffffffffffffffffffffffffffffff82169050919050565b60006109cb826109a0565b9050919050565b6109db816109c0565b82525050565b60006020820190506109f660008301846109d2565b92915050565b600080fd5b610a0a816109c0565b8114610a1557600080fd5b50565b600081359050610a2781610a01565b92915050565b60008060408385031215610a4457610a436109fc565b5b6000610a5285828601610a18565b9250506020610a6385828601610a18565b9150509250929050565b7f4f6e6c79206f776e65722063616e207769746864726177000000000000000000600082015250565b6000610aa360178361080a565b9150610aae82610a6d565b602082019050919050565b60006020820190508181036000830152610ad281610a96565b9050919050565b7f4661696c656420746f2077697468647261772066756e64730000000000000000600082015250565b6000610b0f60188361080a565b9150610b1a82610ad9565b602082019050919050565b60006020820190508181036000830152610b3e81610b02565b9050919050565b7f4f6e6c79206f776e65722063616e207365742077616c6c657473000000000000600082015250565b6000610b7b601a8361080a565b9150610b8682610b45565b602082019050919050565b60006020820190508181036000830152610baa81610b6e565b905091905056fea26469706673582212209859496faff6ea9d865d0a6ec03612cf7edf0a40938447608fcfe6b5f6bb57d464736f6c63430008180033",
  "linkReferences": {},
  "deployedLinkReferences": {}
}